:020000040800F2
:100000000028002035140008AD0C0008B30C0008CF
:10001000B90C0008BF0C0008C50C00080000000067
:10002000000000000000000000000000CB0C0008F1
:10003000D70C000800000000E30C0008EF0C0008DB
:100040007D1400087D1400087D1400087D1400084C
:100050007D1400087D1400087D1400087D1400083C
:100060007D1400087D1400087D1400087D1400082C
:100070007D1400087D1400087D1400087D1400081C
:100080007D1400087D1400087D1400087D1400080C
:100090007D1400087D1400087D1400087D140008FC
:1000A0007D1400087D1400087D1400087D140008EC
:1000B000FD0C00087D140008000000007D140008FD
:1000C0007D14000800000000000000007D140008FE
:1000D000000000007D1400087D14000800000000EE
:1000E0007D1400087D1400087D1400080000000045
:1000F0000000000000000000000000000000000000
:0C01000000000000000000005FF808F1A3
:10010C0010B5054C237833B9044B13B10448AFF345
:10011C0000800123237010BD74000020000000003B
:10012C00D42A000808B5034B1BB103490348AFF3AD
:10013C00008008BD0000000078000020D42A0008D0
:10014C0080B483B000AF78607B68002B03D10B4B7D
:10015C0001221A600CE07B68012B03D1084B0122B1
:10016C001A6005E07B68022B02D1064B01221A6053
:10017C0000BF0C37BD4680BC704700BF900000200C
:10018C00940000209800002080B582B000AF0023BE
:10019C00FB7194E0FA79FB794D4951F822204D49D5
:1001AC0041F82320FA79FB794B4951F82220484930
:1001BC0041F82320FB79002B0CD14FF48061474888
:1001CC0001F042FC03461A46FB791146424A42F8BA
:1001DC0023101EE0FB79012B0CD14FF400613F483A
:1001EC0001F032FC03461A46FB7911463A4A42F8B2
:1001FC0023100EE0FB79022B0BD14FF480513748C2
:10020C0001F022FC03461A46FB791146324A42F8A9
:10021C002310FB792E4A52F82320FB792E4951F8F2
:10022C0023309A4248D1FB79294A52F82320FB7992
:10023C00284951F823309A423ED1FB79254A52F88D
:10024C002320FB79264951F823309A4217D0FA79AA
:10025C00FB79204951F82220214941F82320FB79D0
:10026C001F4A52F82330002B26D1FB791D4A6421FA
:10027C0042F82310FB791846FFF762FF1CE0FB796C
:10028C00184A52F82320013A164941F82320FB79E9
:10029C00144A52F82330002B0ED1FB790D4A52F838
:1002AC002330002B03D1FB791846FFF749FFFB796C
:1002BC000C4A642142F82310FB790133FB71FB7962
:1002CC00022B7FF667AF00BF00BF0837BD4680BD6D
:1002DC000C00002018000020000000200008014045
:1002EC00240000203000002080B400AF064B1B68B7
:1002FC00012B04D1044B00221A60012300E00023DF
:10030C001846BD4680BC70479000002080B400AFFA
:10031C00064B1B68012B04D1044B00221A600123ED
:10032C0000E000231846BD4680BC704794000020B6
:10033C0080B400AF064B1B68012B04D1044B002288
:10034C001A60012300E000231846BD4680BC7047AC
:10035C009800002080B483B000AF78607B68092BD4
:10036C0000F2A28001A252F823F000BFA103000802
:10037C00BD030008D9030008F503000811040008A8
:10038C002D040008490400086504000881040008D5
:10039C00990400084B4BDA684A494FF680731340B6
:1003AC00CB60484BDB68474A43F04003D36083E0A3
:1003BC00444BDA6843494FF680731340CB60414B92
:1003CC00DB68404A43F07903D36075E03D4BDA6853
:1003DC003C494FF680731340CB603A4BDB68394A8B
:1003EC0043F02403D36067E0364BDA6835494FF6A7
:1003FC0080731340CB60334BDB68324A43F03003DD
:10040C00D36059E02F4BDA682E494FF680731340B6
:10041C00CB602C4BDB682B4A43F01903D3604BE0C9
:10042C00284BDA6827494FF680731340CB60254B75
:10043C00DB68244A43F01203D3603DE0214BDA68B9
:10044C0020494FF680731340CB601E4BDB681D4A6E
:10045C0043F00203D3602FE01A4BDA6819494FF6C8
:10046C0080731340CB60174BDB68164A43F078035C
:10047C00D36021E0134BDA6812494FF680731340B6
:10048C00CB60104B0F4ADB68D36015E00D4BDA687C
:10049C000C494FF680731340CB600A4BDB68094A5A
:1004AC0043F01003D36007E0064BDA6805494FF6BA
:1004BC0080731340CB6000BF00BF0C37BD4680BCBF
:1004CC00704700BF000C014080B588B000AFF860E9
:1004DC00B9607A60BB685F4A82FB03129210DB172B
:1004EC00D31A3B61B9685B4B83FB01239A10CB1782
:1004FC00D21A13469B0013445B00CA1A7A617B68BC
:10050C00544A82FB03129210DB17D31ABB61796831
:10051C00504B83FB01239A10CB17D21A13469B0026
:10052C0013445B00CA1AFA61FB68032B76D801A24C
:10053C0052F823F05105000887050008BD05000896
:10054C00F305000800224021434801F094FA0122EF
:10055C008021414801F08FFA01224FF480713E480E
:10056C0001F089FA01224FF400713B4801F083FA43
:10057C003B691846FFF7EEFE67E001224021364842
:10058C0001F079FA00228021334801F074FA01223B
:10059C004FF48071304801F06EFA01224FF4007173
:1005AC002D4801F068FA7B691846FFF7D3FE4CE042
:1005BC0001224021284801F05EFA012280212648C0
:1005CC0001F059FA00224FF48071234801F053FADC
:1005DC0001224FF40071204801F04DFABB69184616
:1005EC00FFF7B8FE31E0012240211B4801F043FA2D
:1005FC0001228021184801F03EFA01224FF480714B
:10060C00154801F038FA00224FF40071124801F03D
:10061C0032FAFB691846FFF79DFE16E000224021D6
:10062C000D4801F028FA002280210B4801F023FA32
:10063C0000224FF48071084801F01DFA00224FF49B
:10064C000071054801F017FA00BF00BF2037BD4606
:10065C0080BD00BF676666660008014080B582B049
:10066C0000AF00F007FF00F0FBF800F081F900F09C
:10067C0033F9714801F068FE4FF4FA7000F07CFB1E
:10068C000A2000F0ADFB0A2000F090FB6B4B1B68BE
:10069C004FF47A7202FB03F3184600F039FB684BF7
:1006AC001B684FF47A7202FB03F3184600F04AFB06
:1006BC0000237B6000F040FC00F082FDFFF726FE7B
:1006CC000346002B2ED05F4B1B6840F6B83293428A
:1006DC0009D15A4B1B680133584A1360574B1B689E
:1006EC00594A13601EE0574B1B6840F6BA329342CE
:1006FC0009D1564B1B680133544A1360534B1B688A
:10070C00514A13600EE04F4B1B6840F6B9329342CE
:10071C0008D14B4B1B680133494A1360484B1B688B
:10072C00494A13604A4B1B68B3F5FA6F16D1494B13
:10073C001B68012BBED1FA2000F038FB7B685A1CD9
:10074C007A60454A1168454A12681846FFF7BCFEA4
:10075C007B68032BAEDD00237B60ABE7394B1B685A
:10076C0040F2D172934205D0364B1B6840F6B8323A
:10077C00934215D1374B1B68012B58D1FA2000F04E
:10078C0015FB7B685A1C7A602F4A116802221846A6
:10079C00FFF79AFE7B68032B49DD00237B6046E064
:1007AC00284B1B6840F2D372934205D0254B1B6833
:1007BC0040F6BA32934215D1264B1B68012B38D127
:1007CC00FA2000F0F3FA7B685A1C7A601E4A116812
:1007DC0003221846FFF778FE7B68032B29DD0023E4
:1007EC007B6026E0174B1B6840F2D272934206D016
:1007FC00144B1B6840F6B93293427FF45BAF154B38
:10080C001B68012B7FF456AFFA2000F0CFFA7B68FF
:10081C005A1C7A600C4A116804221846FFF754FEE1
:10082C007B68032B7FF746AF00237B6042E700BF5A
:10083C0040E700BF3EE700BFC80000205800002082
:10084C005C0000203C0000209C0000206000002088
:10085C0040000020B8000020640000206800002048
:10086C0080B590B000AF07F118032822002118467C
:10087C0002F022F93B1D00221A605A609A60DA607D
:10088C001A610223BB610123BB621023FB620023AC
:10089C007B6307F11803184601F01EF90346002B81
:1008AC0001D000F0D5F80F237B600023BB60002340
:1008BC00FB6000233B6100237B613B1D002118463C
:1008CC0001F08AFB0346002B01D000F0C1F800BFF9
:1008DC004037BD4680BD000080B586B000AF07F143
:1008EC00080300221A605A609A60DA603B460022C4
:1008FC001A605A601D4B4FF080421A601B4B41F638
:10090C003F725A60194B00229A60184B0A22DA6027
:10091C00164B00221A61154B00229A61134801F004
:10092C00C3FC0346002B01D000F092F84FF4805327
:10093C00BB6007F1080319460C4801F059FE034649
:10094C00002B01D000F084F800233B6000237B6077
:10095C003B461946054802F021F80346002B01D00E
:10096C0000F076F800BF1837BD4680BDC8000020E7
:10097C0080B586B000AF07F1080300221A605A60F8
:10098C009A60DA60294B9B69284A43F0040393610F
:10099C00264B9B6903F004037B607B68234B9B69AC
:1009AC00224A43F008039361204B9B6903F0080330
:1009BC003B603B6800224FF470711D4801F05BF8FE
:1009CC00002241F6FF711B4801F055F84FF470738B
:1009DC00BB600123FB6000233B6102237B6107F1B9
:1009EC0008031946124800F0B5FE41F6FF73BB60D0
:1009FC000123FB6000233B6102237B6107F10803A9
:100A0C0019460C4800F0A6FE4FF4E053BB600023DF
:100A1C00FB6001233B6107F108031946044800F011
:100A2C0099FE00BF1837BD4680BD00BF00100240C4
:100A3C0000080140000C014080B582B000AF786026
:100A4C00FFF7A2FB00F0E6F900BF0837BD4680BDFA
:100A5C0080B400AF72B600BFFEE7000080B582B074
:100A6C0000AF786039607B68662B60D07B68662B42
:100A7C0000F388807B68642B03D07B68652B2BD0BC
:100A8C0080E03B68012B11D100228021434800F00B
:100A9C00F2FF01224FF48071404800F0ECFF01227C
:100AAC004FF400713D4800F0E6FF6DE03B68022B0F
:100ABC006AD100224FF48061384800F0DCFF01223B
:100ACC004FF40061354800F0D6FF01224FF48051FD
:100ADC00324800F0D0FF57E03B68012B11D10122C6
:100AEC0080212E4800F0C7FF00224FF480712B4864
:100AFC0000F0C1FF01224FF40071284800F0BBFF49
:100B0C0044E03B68022B41D101224FF48061234821
:100B1C0000F0B1FF00224FF40061204800F0ABFF61
:100B2C0001224FF480511D4800F0A5FF2EE03B68D8
:100B3C00012B11D101228021184800F09CFF0122C9
:100B4C004FF48071154800F096FF00224FF40071AD
:100B5C00124800F090FF1BE03B68022B18D10122D9
:100B6C004FF480610D4800F086FF01224FF40061C4
:100B7C000A4800F080FF00224FF48051074800F033
:100B8C007AFF05E000BF04E000BF02E000BF00E018
:100B9C0000BF00BF0837BD4680BD00BF000C014040
:100BAC0080B500AF01228021114800F064FF0122C2
:100BBC004FF480710E4800F05EFF01224FF400717B
:100BCC000B4800F058FF01224FF48061084800F0F8
:100BDC0052FF01224FF40061054800F04CFF012246
:100BEC004FF48051024800F046FF00BF80BD00BFAB
:100BFC00000C014080B485B000AF154B9B69144AC2
:100C0C0043F001039361124B9B6903F00103BB603A
:100C1C00BB680F4BDB690E4A43F08053D3610C4B1E
:100C2C00DB6903F080537B607B680A4B5B68FB607D
:100C3C00FB6823F0E063FB60FB6843F08063FB60C0
:100C4C00044AFB68536000BF1437BD4680BC704734
:100C5C00001002400000014080B584B000AF786005
:100C6C007B681B68B3F1804F13D10C4BDB690B4ACB
:100C7C0043F00103D361094BDB6903F00103FB6013
:100C8C00FB68002200211C2000F02DFD1C2000F030
:100C9C0046FD00BF1037BD4680BD00BF00100240AE
:100CAC0080B400AFFEE780B400AFFEE780B400AFC5
:100CBC00FEE780B400AFFEE780B400AFFEE780B47F
:100CCC0000AF00BFBD4680BC704780B400AF00BF12
:100CDC00BD4680BC704780B400AF00BFBD4680BC31
:100CEC00704780B500AF00F00BFC00BF80BD00006A
:100CFC0080B500AF024801F073FB00BF80BD00BFA0
:100D0C00C800002080B400AF00BFBD4680BC704757
:100D1C0080B483B000AF7860074B00221A60074B99
:100D2C001B687A6892FBF3F3054A136000BF0C371B
:100D3C00BD4680BC704700BFA000002050000020C2
:100D4C00A400002080B483B000AF7860074B002271
:100D5C001A60074B1B687A6892FBF3F3054A136021
:100D6C0000BF0C37BD4680BC704700BFA8000020F8
:100D7C0050000020AC00002080B483B000AF78603D
:100D8C00074B00221A60074B1B687A6892FBF3F33F
:100D9C00054A136000BF0C37BD4680BC704700BFCE
:100DAC00B000002050000020B400002080B483B0BC
:100DBC0000AF7860074B00221A60074B1B687A68FB
:100DCC0092FBF3F3054A136000BF0C37BD4680BCA1
:100DDC00704700BFB800002050000020BC0000206D
:100DEC0080B483B000AF7860074B00221A60074BC9
:100DFC001B687A6892FBF3F3054A136000BF0C374B
:100E0C00BD4680BC704700BFC000002050000020D1
:100E1C00C400002080B400AF294B1B68002B0BDDF5
:100E2C00274B1B68013B264A1360254B1B68002B84
:100E3C0002DC244B01221A60234B1B68002B0BDDB8
:100E4C00214B1B68013B204A13601F4B1B68002B76
:100E5C0002DC1E4B01221A601D4B1B68002B0BDDA4
:100E6C001B4B1B68013B1A4A1360194B1B68002B68
:100E7C0002DC184B01221A60174B1B68002B0BDD90
:100E8C00154B1B68013B144A1360134B1B68002B5A
:100E9C0002DC124B01221A60114B1B68002B0BDD7C
:100EAC000F4B1B68013B0E4A13600D4B1B68002B4C
:100EBC0002DC0C4B01221A6000BFBD4680BC70479F
:100ECC00A4000020A0000020AC000020A8000020FE
:100EDC00B4000020B0000020BC000020B8000020AE
:100EEC00C4000020C000002080B500AFFFF7FCF963
:100EFC000346002B14D0FFF753FE0A4B40F2D1727D
:100F0C001A60094B40F2CF721A60084B40F2CF7254
:100F1C001A60074B40F2CF721A60064B00221A601F
:100F2C0000BF80BD3C000020400000204400002099
:100F3C00480000209C00002080B500AF794B1B6856
:100F4C00662B61D0662B00F38C80642B02D0652B52
:100F5C002DD086E001216420FFF780FD724B1B68C9
:100F6C00012B0DD14FF47A70FFF73AFF6F4B1B68D2
:100F7C00013B6E4A13606E4B1B68013B6C4A13605D
:100F8C006C4B1B68012B0FD16B4B1B686B4A1268A7
:100F9C0002FB03F31846FFF7BBFE624B65221A6097
:100FAC00654B1B68614A1360FFF79EFF5AE00121F5
:100FBC006520FFF753FD5C4B1B68012B0DD14FF4E3
:100FCC007A70FFF70DFF594B1B68013B574A1360B2
:100FDC00574B1B68013B564A1360564B1B68012B41
:100FEC000FD1574B1B68554A126802FB03F3184686
:100FFC00FFF78EFE4B4B66221A60514B1B684B4A17
:10100C001360FFF771FF2DE001216620FFF726FD2D
:10101C00454B1B68012B0DD14FF47A70FFF7E0FEA6
:10102C00424B1B68013B414A1360414B1B68013B1F
:10103C003F4A13603F4B1B68012B0FD1414B1B6880
:10104C003E4A126802FB03F31846FFF761FE354B6C
:10105C0064221A603B4B1B68344A1360FFF744FF51
:10106C0000E000BF384B1B68662B3CD0662B55DC70
:10107C00642B02D0652B1BD050E002216420FFF7BB
:10108C00EDFC324B1B68012B0FD12B4B1B682B4AF1
:10109C00126802FB03F31846FFF754FE2A4B652235
:1010AC001A60254B1B68224A1360FFF71DFF36E0C0
:1010BC0002216520FFF7D2FC244B1B68012B0FD1BA
:1010CC001F4B1B681D4A126802FB03F31846FFF7FF
:1010DC0039FE1D4B66221A60194B1B68144A1360AB
:1010EC00FFF702FF1BE002216620FFF7B7FC174B4E
:1010FC001B68012B0FD1134B1B68104A126802FBA3
:10110C0003F31846FFF71EFE0F4B64221A600D4BBB
:10111C001B68074A1360FFF7E7FE00E000BF00BF43
:10112C0080BD00BF44000020C000002064000020EF
:10113C0068000020A00000205C000020540000206B
:10114C00600000205800002048000020A80000206B
:10115C0080B582B000AF78607B68662B1ED07B6850
:10116C00662B26DC7B68642B03D07B68652B0AD04E
:10117C001FE08021114800F096FC4FF480610F486D
:10118C0000F091FC16E04FF480710C4800F08BFCE1
:10119C004FF40061094800F086FC0BE04FF400713D
:1011AC00064800F080FC4FF48051044800F07BFCB2
:1011BC0000E000BF00BF0837BD4680BD000C0140F9
:1011CC0080B500AF8D4B1B6840F6BA32934200F0ED
:1011DC008E8040F6BA32934200F3008140F6B93269
:1011EC00934200F0E68040F6B932934200F3F68069
:1011FC0040F6B83293423DD040F6B832934200F3F9
:10120C00ED8040F2D37293424AD040F2D3729342B3
:10121C0000F3E48040F2D172934204D040F2D272D7
:10122C00934279D0DAE0764B1B68012B06D14FF450
:10123C00FA70FFF7A1FD6420FFF78AFFFFF754F85F
:10124C000346002B08D0FFF7ABFC6C4B40F2D3727B
:10125C001A606C4B00221A60FFF758F80346002BFB
:10126C0000F0BE80654B40F6B8321A60664B002227
:10127C001A60B5E0624B1B68012B06D14FF4FA7073
:10128C00FFF77AFD6420FFF763FFFFF751F8034681
:10129C00002B00F0A780594B40F2D1721A60A1E0EC
:1012AC00574B1B68012B06D14FF4FA70FFF764FD06
:1012BC006620FFF74DFFFFF717F80346002B08D009
:1012CC00FFF76EFC4D4B40F2D2721A604D4B002270
:1012DC001A60FFF71BF80346002B00F08580474B84
:1012EC0040F6BA321A60494B00221A607CE0444B3B
:1012FC001B68012B06D14FF4FA70FFF73DFD6620F9
:10130C00FFF726FFFFF714F80346002B6ED03B4B7C
:10131C0040F2D3721A6069E0394B1B68012B06D17D
:10132C004FF4FA70FFF728FD6520FFF711FFFEF769
:10133C00DBFF0346002B2FD0FFF732FC344B4FF46E
:10134C00FA621A602D4B4FF4FA621A60314B642228
:10135C001A60314B65221A602B4B1B684FF47A7262
:10136C0002FB03F31846FFF7D3FC2C4B1B684FF41E
:10137C007A7202FB03F31846FFF7E4FC0A20FFF72E
:10138C002FFD214B1B68264A1360244B1B68254AF2
:10139C0013601C4B00221A60FEF7B8FF0346002BAB
:1013AC0026D0164B40F6B9321A601C4B00221A603C
:1013BC001EE0134B1B68012B06D14FF4FA70FFF79C
:1013CC00DBFC6520FFF7C4FEFEF7B2FF0346002BE3
:1013DC0010D00A4B40F2D2721A600BE000BF0AE048
:1013EC0000BF08E000BF06E000BF04E000BF02E061
:1013FC0000BF00E000BF00BF80BD00BF3C0000206C
:10140C00B00000209C00002058000020600000204C
:10141C004000002044000020480000205C00002018
:10142C0064000020680000200C480D490D4A002380
:10143C0002E0D458C4500433C4188C42F9D30A4A7D
:10144C000A4C002301E013600432A242FBD3FFF7E5
:10145C0059FC01F00DFBFFF701F97047000000206B
:10146C0074000020142B00087400002014010020CC
:10147C00FEE7000080B500AF084B1B68074A43F03D
:10148C0010031360032000F023F90F2000F008F87C
:10149C00FFF7B0FB0023184680BD00BF00200240C0
:1014AC0080B582B000AF7860124B1A68124B1B7873
:1014BC0019464FF47A73B3FBF1F3B2FBF3F318460E
:1014CC0000F03BF90346002B01D001230EE07B68B2
:1014DC000F2B0AD8002279684FF0FF3000F003F987
:1014EC00064A7B681360002300E001231846083786
:1014FC00BD4680BD4C000020700000206C00002018
:10150C0080B400AF054B1B781A46054B1B6813447F
:10151C00034A136000BFBD4680BC704770000020BA
:10152C001001002080B400AF024B1B681846BD466A
:10153C0080BC70471001002080B485B000AF78608B
:10154C007B6803F00703FB600C4BDB68BB60BA687D
:10155C004FF6FF031340BB60FB681A02BB681343D2
:10156C0043F0BF6343F40033BB60044ABB68D360F1
:10157C0000BF1437BD4680BC704700BF00ED00E0D3
:10158C0080B400AF044BDB681B0A03F0070318465A
:10159C00BD4680BC704700BF00ED00E080B483B056
:1015AC0000AF0346FB7197F90730002B0BDBFB797F
:1015BC0003F01F02064997F907305B09012000FA76
:1015CC0002F241F8232000BF0C37BD4680BC7047A7
:1015DC0000E100E080B483B000AF03463960FB71DA
:1015EC0097F90730002B0ADB3B68DAB20C4997F904
:1015FC0007301201D2B20B4483F800230AE03B6897
:10160C00DAB20849FB7903F00F03043B1201D2B2A2
:10161C000B441A7600BF0C37BD4680BC704700BF28
:10162C0000E100E000ED00E080B489B000AFF860AC
:10163C00B9607A60FB6803F00703FB61FB69C3F1D7
:10164C000703042B28BF0423BB61FB690433062B5F
:10165C0002D9FB69033B00E000237B614FF0FF32B2
:10166C00BB6902FA03F3DA43BB681A407B699A4000
:10167C004FF0FF317B6901FA03F3D9437B680B40D0
:10168C00134318462437BD4680BC704780B582B0E2
:10169C0000AF78607B68013BB3F1807F01D30123FD
:1016AC000FE00A4A7B68013B53600F214FF0FF307B
:1016BC00FFF790FF054B00229A60044B07221A603B
:1016CC00002318460837BD4680BD00BF10E000E07F
:1016DC0080B582B000AF78607868FFF72DFF00BF4F
:1016EC000837BD4680BD80B586B000AF0346B960F3
:1016FC007A60FB7300237B61FFF742FF78617A68A5
:10170C00B9687869FFF790FF024697F90F301146D8
:10171C001846FFF75FFF00BF1837BD4680BD80B588
:10172C0082B000AF0346FB7197F907301846FFF7FC
:10173C0035FF00BF0837BD4680BD80B582B000AF15
:10174C0078607868FFF7A2FF034618460837BD4655
:10175C0080BD000080B48BB000AF7860396000238E
:10176C007B6200233B6248E101227B6A02FA03F3AD
:10177C00FB613B681B68FA691340BB61BA69FB6982
:10178C009A4240F037813B685B68A34A93425ED033
:10179C00A14A934275D8A14A934258D09F4A93428A
:1017AC006FD89F4A934252D09D4A934269D89D4A22
:1017BC0093424CD09B4A934263D89B4A934246D067
:1017CC00994A93425DD8122B2AD8122B59D801A2D0
:1017DC0052F823F05B180008351800084718000869
:1017EC00891800088F1800088F1800088F18000837
:1017FC008F1800088F1800088F1800088F18000821
:10180C008F1800088F1800088F1800088F18000810
:10181C008F1800088F1800083D1800085118000890
:10182C00824A934213D02CE03B68DB683B6229E090
:10183C003B68DB6804333B6224E03B68DB680833BD
:10184C003B621FE03B68DB680C333B621AE03B6891
:10185C009B68002B02D104233B6213E03B689B681E
:10186C00012B05D108233B627B68FA691A6109E0F8
:10187C0008233B627B68FA695A6103E000233B62F0
:10188C0000E000BFBB69FF2B01D87B6801E07B68DF
:10189C0004337B61BB69FF2B02D87B6A9B0002E09F
:1018AC007B6A083B9B003B617B691A680F213B6993
:1018BC0001FA03F3DB431A40396A3B6901FA03F37B
:1018CC001A437B691A603B685B6803F08053002BFA
:1018DC0000F09080564B9B69554A43F0010393618D
:1018EC00534B9B6903F00103BB60BB68514A7B6A95
:1018FC009B08023352F82330FB607B6A03F003032E
:10190C009B000F2202FA03F3DB43FA681340FB60DF
:10191C007B68494A93420DD07B68484A934207D072
:10192C007B68474A934201D1022304E0032302E07F
:10193C00012300E000237A6A02F003029200934034
:10194C00FA681343FB603B497B6A9B080233FA68D5
:10195C0041F823203B685B6803F48033002B06D0EE
:10196C00384B1A683749BB6913430B6006E0354B9B
:10197C001A68BB69DB43334913400B603B685B68F7
:10198C0003F40033002B06D02E4B5A682D49BB694B
:10199C0013434B6006E02B4B5A68BB69DB43294968
:1019AC0013404B603B685B6803F48013002B06D03C
:1019BC00244B9A682349BB6913438B6006E0214B87
:1019CC009A68BB69DB431F4913408B603B685B68BB
:1019DC0003F40013002B06D01A4BDA681949BB69C3
:1019EC001343CB6006E0174BDA68BB69DB43154940
:1019FC001340CB607B6A01337B623B681A687B6A5D
:101A0C0022FA03F3002B7FF4AFAE00BF00BF2C37DC
:101A1C00BD4680BC704700BF000032100000311082
:101A2C000000221000002110000012100000111004
:101A3C00001002400000014000080140000C014071
:101A4C00001001400004014080B485B000AF786004
:101A5C000B467B807B689A687B881340002B02D0F6
:101A6C000123FB7301E00023FB73FB7B1846143747
:101A7C00BD4680BC704780B483B000AF78600B4625
:101A8C007B8013467B707B78002B03D07A887B6835
:101A9C001A6103E07B881A047B681A6100BF0C375B
:101AAC00BD4680BC704780B485B000AF78600B46F3
:101ABC007B807B68DB68FB607A88FB6813401A04C8
:101ACC00FB68D9437B880B401A437B681A6100BFC3
:101ADC001437BD4680BC704780B586B000AF7860C7
:101AEC007B68002B01D101236CE27B681B6803F03F
:101AFC000103002B00F08780924B5B6803F00C0312
:101B0C00042B0CD08F4B5B6803F00C03082B12D109
:101B1C008C4B5B6803F48033B3F5803F0BD1894B5E
:101B2C001B6803F40033002B6CD07B685B68002BC4
:101B3C0068D1012346E27B685B68B3F5803F06D130
:101B4C00804B1B687F4A43F4803313602EE07B6824
:101B5C005B68002B0CD17B4B1B687A4A23F48033D7
:101B6C001360784B1B68774A23F4802313601DE0C5
:101B7C007B685B68B3F5A02F0CD1724B1B68714A64
:101B8C0043F4802313606F4B1B686E4A43F480331D
:101B9C0013600BE06B4B1B686A4A23F480331360B1
:101BAC00684B1B68674A23F4802313607B685B686F
:101BBC00002B13D0FFF7B6FC386108E0FFF7B2FC3E
:101BCC0002463B69D31A642B01D90323FAE15D4B1E
:101BDC001B6803F40033002BF0D014E0FFF7A2FCD9
:101BEC00386108E0FFF79EFC02463B69D31A642B70
:101BFC0001D90323E6E1534B1B6803F40033002B9C
:101C0C00F0D100E000BF7B681B6803F00203002BDF
:101C1C0063D04C4B5B6803F00C03002B0BD0494B8F
:101C2C005B6803F00C03082B1CD1464B5B6803F478
:101C3C008033002B16D1434B1B6803F00203002B9F
:101C4C0005D07B681B69012B01D00123BAE13D4B08
:101C5C001B6823F0F8027B685B69DB00394913438E
:101C6C000B603AE07B681B69002B20D0364B0122BD
:101C7C001A60FFF757FC386108E0FFF753FC024687
:101C8C003B69D31A022B01D903239BE12D4B1B6813
:101C9C0003F00203002BF0D02A4B1B6823F0F80250
:101CAC007B685B69DB00274913430B6015E0264B0F
:101CBC0000221A60FFF736FC386108E0FFF732FCAF
:101CCC0002463B69D31A022B01D903237AE11D4B3F
:101CDC001B6803F00203002BF0D17B681B6803F038
:101CEC000803002B3AD07B689B69002B19D0174B4B
:101CFC0001221A60FFF716FC386108E0FFF712FCAE
:101D0C0002463B69D31A022B01D903235AE10D4B2E
:101D1C005B6A03F00203002BF0D0012000F0A6FA5E
:101D2C001CE00A4B00221A60FFF7FCFB38610FE045
:101D3C00FFF7F8FB02463B69D31A022B08D90323A1
:101D4C0040E100BF001002400000424280044242C9
:101D5C009E4B5B6A03F00203002BE9D17B681B6886
:101D6C0003F00403002B00F0A6800023FB75974BB7
:101D7C00DB6903F08053002B0DD1944BDB69934A44
:101D8C0043F08053D361914BDB6903F08053BB600C
:101D9C00BB680123FB758E4B1B6803F48073002B0F
:101DAC0018D18B4B1B688A4A43F480731360FFF77E
:101DBC00B9FB386108E0FFF7B5FB02463B69D31A63
:101DCC00642B01D90323FDE0814B1B6803F4807362
:101DDC00002BF0D07B68DB68012B06D17B4B1B6A98
:101DEC007A4A43F0010313622DE07B68DB68002B19
:101DFC000CD1764B1B6A754A23F001031362734BAB
:101E0C001B6A724A23F0040313621CE07B68DB68D4
:101E1C00052B0CD16D4B1B6A6C4A43F00403136207
:101E2C006A4B1B6A694A43F0010313620BE0674B70
:101E3C001B6A664A23F001031362644B1B6A634AF4
:101E4C0023F0040313627B68DB68002B15D0FFF7CB
:101E5C0069FB38610AE0FFF765FB02463B69D31A60
:101E6C0041F28832934201D90323ABE0574B1B6AF2
:101E7C0003F00203002BEED014E0FFF753FB3861A4
:101E8C000AE0FFF74FFB02463B69D31A41F2883256
:101E9C00934201D9032395E04C4B1B6A03F00203D8
:101EAC00002BEED1FB7D012B05D1484BDB69474A5A
:101EBC0023F08053D3617B68DB69002B00F08180B9
:101ECC00424B5B6803F00C03082B61D07B68DB6929
:101EDC00022B46D13F4B00221A60FFF723FB3861DF
:101EEC0008E0FFF71FFB02463B69D31A022B01D90E
:101EFC00032367E0354B1B6803F00073002BF0D114
:101F0C007B681B6AB3F5803F08D1304B5B6823F4C8
:101F1C0000327B689B682D4913434B602B4B5B68ED
:101F2C0023F474127B68196A7B685B6A0B4327493C
:101F3C0013434B60274B01221A60FFF7F3FA386109
:101F4C0008E0FFF7EFFA02463B69D31A022B01D9DE
:101F5C00032337E01D4B1B6803F00073002BF0D0FC
:101F6C002FE01C4B00221A60FFF7DCFA386108E006
:101F7C00FFF7D8FA02463B69D31A022B01D9032387
:101F8C0020E0124B1B6803F00073002BF0D118E01B
:101F9C007B68DB69012B01D1012313E00B4B5B68E0
:101FAC00FB60FB6803F480327B681B6A9A4206D1A3
:101FBC00FB6803F470127B685B6A9A4201D00123C0
:101FCC0000E0002318461837BD4680BD00100240C3
:101FDC00007000406000424280B584B000AF786071
:101FEC0039607B68002B01D10123D0E06A4B1B6860
:101FFC0003F007033A689A4210D9674B1B6823F029
:10200C00070265493B6813430B60634B1B6803F085
:10201C0007033A689A4201D00123B8E07B681B6839
:10202C0003F00203002B20D07B681B6803F0040331
:10203C00002B05D0594B5B68584A43F4E06353605E
:10204C007B681B6803F00803002B05D0534B5B68BF
:10205C00524A43F460535360504B5B6823F0F002D8
:10206C007B689B684D4913434B607B681B6803F08E
:10207C000103002B40D07B685B68012B07D1474BD9
:10208C001B6803F40033002B15D101237FE07B6820
:10209C005B68022B07D1414B1B6803F00073002BCC
:1020AC0009D1012373E03D4B1B6803F00203002BA5
:1020BC0001D101236BE0394B5B6823F003027B6891
:1020CC005B68364913434B60FFF72CFAF8600AE063
:1020DC00FFF728FA0246FB68D31A41F28832934282
:1020EC0001D9032353E02D4B5B6803F00C027B6892
:1020FC005B689B009A42EBD1274B1B6803F00703EC
:10210C003A689A4210D2244B1B6823F007022249EA
:10211C003B6813430B60204B1B6803F007033A68C2
:10212C009A4201D0012332E07B681B6803F0040360
:10213C00002B08D0194B5B6823F4E0627B68DB68EA
:10214C00164913434B607B681B6803F00803002B94
:10215C0009D0124B5B6823F460527B681B69DB006F
:10216C000E4913434B6000F021F802460B4B5B68A1
:10217C001B0903F00F030A49CB5C22FA03F3094A4B
:10218C001360094B1B681846FFF78AF900231846A1
:10219C001037BD4680BD00BF002002400010024039
:1021AC00FC2A00084C0000206C00002090B48AB07F
:1021BC0000AF2A4B3C1D0FCB84E80F0040F20123EB
:1021CC003B800023FB610023BB6100237B62002367
:1021DC007B6100233B62224B5B68FB61FB6903F074
:1021EC000C03042B02D0082B03D02DE01D4B3B62BB
:1021FC002DE0FB699B0C03F00F0307F1280213443D
:10220C0013F8243C7B61FB6903F48033002B13D05F
:10221C00134B5B685B0C03F0010307F128021344BA
:10222C0013F8283CBB617B690E4A02FB03F2BB69C5
:10223C00B2FBF3F37B6204E07B690B4A02FB03F312
:10224C007B627B6A3B6202E0064B3B6200BF3B6AEF
:10225C0018462837BD4690BC704700BFEC2A0008D2
:10226C000010024000127A0000093D0080B485B0D5
:10227C0000AF78600A4B1B680A4AA2FB03235B0A77
:10228C007A6802FB03F3FB6000BFFB685A1EFA601E
:10229C00002BF9D100BF00BF1437BD4680BC70477E
:1022AC004C000020D34D621080B582B000AF786036
:1022BC007B68002B01D1012341E07B6893F83D3012
:1022CC00DBB2002B06D17B68002283F83C207868B7
:1022DC00FEF7C2FC7B68022283F83D207B681A68FB
:1022EC007B6804331946104600F06AFA7B680122B9
:1022FC0083F846207B68012283F83E207B6801220C
:10230C0083F83F207B68012283F840207B68012200
:10231C0083F841207B68012283F842207B680122EC
:10232C0083F843207B68012283F844207B680122D8
:10233C0083F845207B68012283F83D200023184652
:10234C000837BD4680BD000080B485B000AF786012
:10235C007B6893F83D30DBB2012B01D0012335E0D3
:10236C007B68022283F83D207B681B68DA687B68F7
:10237C001B6842F00102DA607B681B68164A9342C4
:10238C0009D07B681B68B3F1804F04D07B681B6855
:10239C00124A934211D17B681B689B6803F00703B8
:1023AC00FB60FB68062B10D07B681B681A687B6887
:1023BC001B6842F001021A6007E07B681B681A6810
:1023CC007B681B6842F001021A6000231846143720
:1023DC00BD4680BC704700BF002C0140000400408B
:1023EC0080B582B000AF78607B681B681B6903F016
:1023FC000203022B22D17B681B68DB6803F002030B
:10240C00022B1BD17B681B686FF002021A617B6880
:10241C0001221A777B681B689B6903F00303002B6E
:10242C0003D0786800F0B1F905E0786800F0A4F901
:10243C00786800F0B3F97B6800221A777B681B6818
:10244C001B6903F00403042B22D17B681B68DB6837
:10245C0003F00403042B1BD17B681B686FF0040290
:10246C001A617B6802221A777B681B689B6903F4EC
:10247C004073002B03D0786800F087F905E078688A
:10248C0000F07AF9786800F089F97B6800221A77F5
:10249C007B681B681B6903F00803082B22D17B683F
:1024AC001B68DB6803F00803082B1BD17B681B68D7
:1024BC006FF008021A617B6804221A777B681B682C
:1024CC00DB6903F00303002B03D0786800F05DF99F
:1024DC0005E0786800F050F9786800F05FF97B68E7
:1024EC0000221A777B681B681B6903F01003102B02
:1024FC0022D17B681B68DB6803F01003102B1BD107
:10250C007B681B686FF010021A617B6808221A77CF
:10251C007B681B68DB6903F44073002B03D078687D
:10252C0000F033F905E0786800F026F9786800F0DF
:10253C0035F97B6800221A777B681B681B6903F0EE
:10254C000103012B0ED17B681B68DB6803F00103D0
:10255C00012B07D17B681B686FF001021A61786848
:10256C00FEF76AFA7B681B681B6903F08003802BFB
:10257C000ED17B681B68DB6803F08003802B07D1CE
:10258C007B681B686FF080021A61786800F067FA4C
:10259C007B681B681B6903F04003402B0ED17B68E2
:1025AC001B68DB6803F04003402B07D17B681B687A
:1025BC006FF040021A61786800F0F9F87B681B68CC
:1025CC001B6903F02003202B0ED17B681B68DB6892
:1025DC0003F02003202B07D17B681B686FF02002CF
:1025EC001A61786800F032FA00BF0837BD4680BD2A
:1025FC0080B584B000AF786039607B6893F83C306C
:10260C00012B01D10223B3E07B68012283F83C202B
:10261C007B68022283F83D207B681B689B68FB600B
:10262C00FB6823F07703FB60FB6823F47F43FB60BC
:10263C007B681B68FA689A603B681B68B3F5005F9F
:10264C003ED0B3F5005F00F28780B3F5805F00F0F9
:10265C008580B3F5805F7FD8702B1AD0702B7BD818
:10266C00602B50D0602B77D8502B3CD0502B73D88C
:10267C00402B58D0402B6FD8302B64D0302B6BD8DC
:10268C00202B60D0202B67D8002B5CD0102B5AD07D
:10269C0062E07B6818683B6899683B685A683B68DD
:1026AC00DB6800F05CF97B681B689B68FB60FB686F
:1026BC0043F07703FB607B681B68FA689A604EE016
:1026CC007B6818683B6899683B685A683B68DB68AC
:1026DC0000F045F97B681B689A687B681B6842F4BC
:1026EC0080429A603BE07B6818683B6859683B689D
:1026FC00DB681A4600F0BCF87B681B685021184652
:10270C0000F013F92BE07B6818683B6859683B684C
:10271C00DB681A4600F0DAF87B681B686021184603
:10272C0000F003F91BE07B6818683B6859683B684C
:10273C00DB681A4600F09CF87B681B684021184641
:10274C0000F0F3F80BE07B681A683B681B681946CD
:10275C00104600F0EAF802E000BF00E000BF7B6822
:10276C00012283F83D207B68002283F83C20002363
:10277C0018461037BD4680BD80B483B000AF78607A
:10278C0000BF0C37BD4680BC704780B483B000AF2F
:10279C00786000BF0C37BD4680BC704780B483B0F6
:1027AC0000AF786000BF0C37BD4680BC704780B46A
:1027BC0083B000AF786000BF0C37BD4680BC70475B
:1027CC0080B485B000AF786039607B681B68FB60B3
:1027DC007B68254A934207D07B68B3F1804F03D0C6
:1027EC007B68224A934208D1FB6823F07003FB609C
:1027FC003B685B68FA681343FB607B681A4A934238
:10280C0007D07B68B3F1804F03D07B68174A9342A3
:10281C0008D1FB6823F44073FB603B68DB68FA6803
:10282C001343FB60FB6823F080023B685B69134336
:10283C00FB607B68FA681A603B689A687B68DA62AE
:10284C003B681A687B689A627B68074A934203D19B
:10285C003B681A697B681A637B6801225A6100BF66
:10286C001437BD4680BC7047002C0140000400406A
:10287C0080B487B000AFF860B9607A60FB681B6AFF
:10288C007B61FB681B6A23F00102FB681A62FB6820
:10289C009B693B613B6923F0F0033B617B681B0147
:1028AC003A6913433B617B6923F00A037B617A69C4
:1028BC00BB6813437B61FB683A699A61FB687A6970
:1028CC001A6200BF1C37BD4680BC704780B487B00D
:1028DC0000AFF860B9607A60FB681B6A23F01002E5
:1028EC00FB681A62FB689B697B61FB681B6A3B6136
:1028FC007B6923F470437B617B681B037A69134308
:10290C007B613B6923F0A0033B61BB681B013A6907
:10291C0013433B61FB687A699A61FB683A691A62F6
:10292C0000BF1C37BD4680BC704780B485B000AF7B
:10293C00786039607B689B68FB60FB6823F07003F0
:10294C00FB603A68FB68134343F00703FB607B684A
:10295C00FA689A6000BF1437BD4680BC704780B4DB
:10296C0087B000AFF860B9607A603B60FB689B6829
:10297C007B617B6923F47F437B613B681A027B6834
:10298C001A43BB6813437A6913437B61FB687A690A
:10299C009A6000BF1C37BD4680BC704780B485B0C0
:1029AC0000AF786039607B6893F83C30012B01D123
:1029BC00022341E07B68012283F83C207B680222E1
:1029CC0083F83D207B681B685B68FB607B681B6839
:1029DC009B68BB60FB6823F07003FB603B681B6863
:1029EC00FA681343FB607B681B68FA685A607B6863
:1029FC001B68144A934209D07B681B68B3F1804F63
:102A0C0004D07B681B68104A93420CD1BB6823F03E
:102A1C008003BB603B685B68BA681343BB607B6830
:102A2C001B68BA689A607B68012283F83D207B683A
:102A3C00002283F83C20002318461437BD4680BC86
:102A4C00704700BF002C01400004004080B483B0EC
:102A5C0000AF786000BF0C37BD4680BC704780B4B7
:102A6C0083B000AF786000BF0C37BD4680BC7047A8
:102A7C0070B500260C4D0D4C641BA410A64209D158
:102A8C0000F022F800260A4D0A4C641BA410A64242
:102A9C0005D170BD55F8043B98470136EEE755F863
:102AAC00043B98470136F2E70C2B00080C2B00086E
:102ABC000C2B0008102B000803460244934200D153
:102ACC00704703F8011BF9E7F8B500BFF8BC08BC68
:102ADC009E467047F8B500BFF8BC08BC9E467047D0
:102AEC0002030405060708090A0B0C0D0E0F101043
:102AFC0000000000000000000102030406070809A2
:042B0C00310100088B
:042B10000D010008AB
:102B140001000000010000000100000001000000AD
:102B2400010000000100000001000000010000009D
:102B3400010000000100000001000000010000008D
:102B4400640000006400000064000000D00700007E
:102B5400D007000064000000650000000024F400B9
:102B64000A000000E8030000050000000300000064
:102B74000200000005000000030000001000000037
:042B8400010000004C
:0400000508001435A6
:00000001FF
